:100000000C944C000C9456000C9456000C94560022
:100010000C9456000C9456000C9456000C94560008
:100020000C9456000C9456000C9456000C945600F8
:100030000C9456000C9456000C9456000C945600E8
:100040000C9456000C9456000C9456000C945600D8
:100050000C9456000C9456000C9456000C945600C8
:100060000C9456000C9456000C9456000C945600B8
:100070000C9456000C9456000C9456000C945600A8
:100080000C9456000C9456000C9456000C94560098
:100090000C9456000C94560011241FBECFEFD0E2F2
:1000A000DEBFCDBF0E9458000C947E000C9400006F
:1000B0008EE08093CA0083E390E09093CD0080931C
:1000C000CC0088E18093C90081E69DE02AE080931E
:1000D000CE008F5F3091C80036FFFCCF9093CE00EA
:1000E0003091C80036FFFCCF2093CE003091C8007D
:1000F00036FFFCCF8A3759F781E6E9CFF894FFCF76
:00000001FF
