:100000000C944C000C9456000C9456000C94560022
:100010000C9456000C9456000C9456000C94560008
:100020000C9456000C9456000C9456000C945600F8
:100030000C9456000C9456000C9456000C945600E8
:100040000C9456000C9456000C9456000C945600D8
:100050000C9456000C9456000C9456000C945600C8
:100060000C9456000C9456000C9456000C945600B8
:100070000C9456000C9456000C9456000C945600A8
:100080000C9456000C9456000C9456000C94560098
:100090000C9456000C94560011241FBECFEFD0E2F2
:1000A000DEBFCDBF0E94BA000C94D4000C940000B7
:1000B00084B1856584B9089584B1857584B908953E
:1000C000672BA9F08130910561F01CF4892B39F080
:1000D00008958230910539F0039739F00895289AF0
:1000E00008952A9A08952C9A08952E9A0895813099
:1000F000910561F01CF4892B39F008958230910547
:1001000039F0039739F00895289808952A980895AA
:100110002C9808952E9808958130910571F02CF453
:10012000892B99F423B122700DC08230910541F0E2
:10013000039759F423B1207805C023B1287002C079
:1001400023B1207230E0C901089508959093CD0045
:100150008093CC0088E18093C9008EE08093CA0030
:1001600081E090E008959091C80095FFFCCF8093C6
:10017000CE0008950E9458000E945C0083E390E046
:100180000E94A6002E982A9A289A1D9B02C02C989D
:1001900001C02C9A80E70E94B3008DE00E94B3005A
:0C01A0008AE00E94B300F1CFF894FFCF7A
:00000001FF
