:100000000C944C000C946B000C946B000C946B00E3
:100010000C946B000C946B000C946B000C946B00B4
:100020000C946B000C946B000C946B000C946B00A4
:100030000C946B000C946B000C946B000C946B0094
:100040000C946B000C946B000C946B000C946B0084
:100050000C946B000C946B000C946B000C946B0074
:100060000C946B000C946B000C946B000C946B0064
:100070000C946B000C946B000C946B000C946B0054
:100080000C946B000C946B000C946B000C946B0044
:100090000C946B000C946B0011241FBECFEFD0E2C8
:1000A000DEBFCDBF11E0A0E0B1E0ECE6FAE000E099
:1000B0000BBF02C007900D92AA32B107D9F711E029
:1000C000AAE2B1E001C01D92A033B107E1F70E949E
:1000D000F8000C9434050C940000EAE7F0E080810D
:1000E0008760808380818068808310927E0008957D
:1000F000883519F410927C0005C0893519F481E027
:1001000080937C0080917A00806480937A00809153
:100110007A0086FDFCCF8091780090917900089557
:1001200084B1856584B9089584B1857584B90895CD
:10013000672BA9F08130910561F01CF4892B39F00F
:1001400008958230910539F0039739F00895289A7F
:1001500008952A9A08952C9A08952E9A0895813028
:10016000910561F01CF4892B39F0089582309105D6
:1001700039F0039739F00895289808952A9808953A
:100180002C9808952E9808958130910571F02CF4E3
:10019000892B99F423B122700DC08230910541F072
:1001A000039759F423B1207805C023B1287002C009
:1001B00023B1207230E0C901089508959091C800DC
:1001C00095FFFCCF8093CE0008959093CD0080934F
:1001D000CC0088E18093C9008EE08093CA0080E063
:1001E00091E090932D0180932C0181E090E008959F
:1001F0000E9490000E94940083E390E00E94E5003A
:100200002E982A9A289A0E946D00CEE0D1E01D9B7C
:1002100002C02C9801C02C9A80E70E94DE008DE07D
:100220000E94DE008AE00E94DE0088E70E94DE0075
:1002300089E50E9478008C0188E50E9478005C01C5
:10024000B8017250882777FD8095982F0E94F5019C
:100250002AE037ED43EA50E40E945A016B017C0129
:10026000B5017250882777FD8095982F0E94F5017F
:100270002AE037ED43EA50E40E945A014B015C0149
:10028000C701B6010E94C2017F936F93C501B401FB
:100290000E94C2017F936F93DF93CF930E948102EC
:1002A00086E70E94DE000F900F900F900F900F9046
:1002B0000F90ADCF0CD0EBC0E3D040F0DAD030F0EF
:1002C00021F45F3F19F0CCC0511115C1CFC0F0D05F
:1002D00098F39923C9F35523B1F3951B550BBB270D
:1002E000AA2762177307840738F09F5F5F4F220FBA
:1002F000331F441FAA1FA9F333D00E2E3AF0E0E8B3
:1003000030D091505040E695001CCAF729D0FE2FFE
:1003100027D0660F771F881FBB1F26173707480790
:10032000AB07B0E809F0BB0B802DBF01FF27935846
:100330005F4F2AF09E3F510568F092C0DCC05F3FDE
:10034000ECF3983EDCF3869577956795B795F7952E
:100350009F5FC9F7880F911D9695879597F9089526
:10036000E1E0660F771F881FBB1F621773078407C2
:10037000BA0720F0621B730B840BBA0BEE1F88F7D1
:10038000E095089504D06894B111B5C0089598D04F
:1003900088F09F5790F0B92F9927B751A0F0D1F06E
:1003A000660F771F881F991F1AF0BA95C9F712C0F8
:1003B000B13081F09FD0B1E008959CC0672F782FB5
:1003C0008827B85F39F0B93FCCF386957795679564
:1003D000B395D9F73EF490958095709561957F4FD0
:1003E0008F4F9F4F0895E89409C097FB3EF4909576
:1003F0008095709561957F4F8F4F9F4F9923A9F0FE
:10040000F92F96E9BB279395F6958795779567958C
:10041000B795F111F8CFFAF4BB0F11F460FF1BC0D0
:100420006F5F7F4F8F4F9F4F16C0882311F096E963
:1004300011C0772321F09EE8872F762F05C0662311
:1004400071F096E8862F70E060E02AF09A95660FCA
:10045000771F881FDAF7880F9695879597F9089583
:1004600097F99F6780E870E060E008959FEF80EC67
:10047000089500240A94161617061806090608950A
:1004800000240A9412161306140605060895092E70
:100490000394000C11F4882352F0BB0F40F4BF2BDF
:1004A00011F460FF04C06F5F7F4F8F4F9F4F08951F
:1004B00057FD9058440F551F59F05F3F71F0479515
:1004C000880F97FB991F61F09F3F79F087950895FA
:1004D000121613061406551FF2CF4695F1DF08C019
:1004E000161617061806991FF1CF86957105610536
:1004F00008940895E894BB2766277727CB0197F9DE
:100500000895CF93DF93CDB7DEB7FE0135966191A5
:100510007191AF0180912C0190912D010E94930265
:10052000DF91CF9108952F923F924F925F926F92F9
:100530007F928F929F92AF92BF92CF92DF92EF9273
:10054000FF920F931F93CF93DF93CDB7DEB72C9716
:100550000FB6F894DEBF0FBECDBF7C016B018A01E0
:10056000FC0117821682838181FFBDC1CE010196F5
:100570004C01F7019381F60193FD859193FF8191E1
:100580006F01882309F4ABC1853239F493FD85915D
:1005900093FF81916F01853229F4B70190E00E94A9
:1005A000A404E7CF512C312C20E02032A0F48B3270
:1005B00069F030F4803259F0833269F420612CC044
:1005C0008D3239F0803339F4216026C022602460F6
:1005D00023C0286021C027FD27C030ED380F3A30F6
:1005E00078F426FF06C0FAE05F9E300D1124532EEA
:1005F00013C08AE0389E300D1124332E20620CC0C7
:100600008E3221F426FD6BC1206406C08C3611F4B5
:10061000206802C0883641F4F60193FD859193FF6E
:1006200081916F018111C1CF982F9F7D9554933097
:1006300028F40C5F1F4FFFE3F9830DC0833631F0C0
:10064000833771F0833509F05BC022C0F8018081E7
:1006500089830E5F1F4F44244394512C540115C0CD
:100660003801F2E06F0E711CF801A080B18026FF06
:1006700003C0652D70E002C06FEF7FEFC5012C87CE
:100680000E9499042C0183012C852F77222E17C0FC
:100690003801F2E06F0E711CF801A080B18026FFD6
:1006A00003C0652D70E002C06FEF7FEFC5012C879E
:1006B0000E948E042C012C852068222E830123FCAD
:1006C0001BC0832D90E048165906B0F4B70180E2B4
:1006D00090E00E94A4043A94F4CFF50127FC8591A0
:1006E00027FE81915F01B70190E00E94A4043110C0
:1006F0003A94F1E04F1A51084114510471F7E5C0E2
:10070000843611F0893639F5F80127FF07C060817A
:100710007181828193810C5F1F4F08C0608171815C
:10072000882777FD8095982F0E5F1F4F2F76B22E6A
:1007300097FF09C090958095709561957F4F8F4F79
:100740009F4F2068B22E2AE030E0A4010E94D60418
:10075000A82EA81844C0853729F42F7EB22E2AE08F
:1007600030E025C0F22FF97FBF2E8F36C1F018F48C
:10077000883579F0B4C0803719F0883721F0AFC0E0
:100780002F2F2061B22EB4FE0DC08B2D8460B82EA9
:1007900009C024FF0AC09F2F9660B92E06C028E02A
:1007A00030E005C020E130E002C020E132E0F80195
:1007B000B7FE07C060817181828193810C5F1F4FFA
:1007C00006C06081718180E090E00E5F1F4FA40140
:1007D0000E94D604A82EA818FB2DFF77BF2EB6FEC8
:1007E0000BC02B2D2E7FA51450F4B4FE0AC0B2FC12
:1007F00008C02B2D2E7E05C07A2C2B2D03C07A2C01
:1008000001C0752C24FF0DC0FE01EA0DF11D808191
:10081000803311F4297E09C022FF06C073947394BB
:1008200004C0822F867809F0739423FD13C020FF43
:1008300006C05A2C731418F4530C5718732C7314E5
:1008400068F4B70180E290E02C870E94A4047394BE
:100850002C85F5CF731410F4371801C0312C24FF08
:1008600012C0B70180E390E02C870E94A4042C857D
:1008700022FF17C021FF03C088E590E002C088E78F
:1008800090E0B7010CC0822F867859F021FD02C09C
:1008900080E201C08BE227FD8DE2B70190E00E946B
:1008A000A404A51438F4B70180E390E00E94A404E6
:1008B0005A94F7CFAA94F401EA0DF11D8081B70193
:1008C00090E00E94A404A110F5CF332009F451CE8A
:1008D000B70180E290E00E94A4043A94F6CFF701B9
:1008E0008681978102C08FEF9FEF2C960FB6F89408
:1008F000DEBF0FBECDBFDF91CF911F910F91FF9053
:10090000EF90DF90CF90BF90AF909F908F907F90AF
:100910006F905F904F903F902F900895FC0105904D
:10092000615070400110D8F7809590958E0F9F1FF1
:100930000895FC016150704001900110D8F7809536
:1009400090958E0F9F1F08950F931F93CF93DF9362
:10095000182F092FEB018B8181FD03C08FEF9FEFD3
:1009600020C082FF10C04E815F812C813D814217E3
:1009700053077CF4E881F9819F012F5F3F4F398352
:100980002883108306C0E885F985812F0995892B76
:1009900029F72E813F812F5F3F4F3F832E83812F89
:1009A000902FDF91CF911F910F910895FA01AA27FF
:1009B000283051F1203181F1E8946F936E7F6E5FA2
:1009C0007F4F8F4F9F4FAF4FB1E03ED0B4E03CD050
:1009D000670F781F891F9A1FA11D680F791F8A1F33
:1009E000911DA11D6A0F711D811D911DA11D20D09A
:1009F00009F468943F912AE0269F11243019305D54
:100A00003193DEF6CF010895462F4770405D419344
:100A1000B3E00FD0C9F7F6CF462F4F70405D4A3391
:100A200018F0495D31FD4052419302D0A9F7EACF59
:100A3000B4E0A6959795879577956795BA95C9F788
:100A400000976105710508959B01AC010A2E06947B
:100A50005795479537952795BA95C9F7620F731F34
:0C0A6000841F951FA01D0895F894FFCF7F
:100A6C000000000200000000DE00000000007863BF
:100A7C006F6F72643A2025642C2079636F6F7264F7
:0A0A8C003A202564200D200A000026
:00000001FF
